{
  "_format": "hh-sol-artifact-1",
  "contractName": "MockERC20",
  "sourceName": "contracts/MockERC20.sol",
  "abi": [
    {
      "inputs": [
        {
          "internalType": "string",
          "name": "name",
          "type": "string"
        },
        {
          "internalType": "string",
          "name": "symbol",
          "type": "string"
        }
      ],
      "stateMutability": "nonpayable",
      "type": "constructor"
    },
    {
      "anonymous": false,
      "inputs": [
        {
          "indexed": true,
          "internalType": "address",
          "name": "owner",
          "type": "address"
        },
        {
          "indexed": true,
          "internalType": "address",
          "name": "spender",
          "type": "address"
        },
        {
          "indexed": false,
          "internalType": "uint256",
          "name": "value",
          "type": "uint256"
        }
      ],
      "name": "Approval",
      "type": "event"
    },
    {
      "anonymous": false,
      "inputs": [
        {
          "indexed": true,
          "internalType": "address",
          "name": "from",
          "type": "address"
        },
        {
          "indexed": true,
          "internalType": "address",
          "name": "to",
          "type": "address"
        },
        {
          "indexed": false,
          "internalType": "uint256",
          "name": "value",
          "type": "uint256"
        }
      ],
      "name": "Transfer",
      "type": "event"
    },
    {
      "inputs": [
        {
          "internalType": "address",
          "name": "owner",
          "type": "address"
        },
        {
          "internalType": "address",
          "name": "spender",
          "type": "address"
        }
      ],
      "name": "allowance",
      "outputs": [
        {
          "internalType": "uint256",
          "name": "",
          "type": "uint256"
        }
      ],
      "stateMutability": "view",
      "type": "function"
    },
    {
      "inputs": [
        {
          "internalType": "address",
          "name": "spender",
          "type": "address"
        },
        {
          "internalType": "uint256",
          "name": "amount",
          "type": "uint256"
        }
      ],
      "name": "approve",
      "outputs": [
        {
          "internalType": "bool",
          "name": "",
          "type": "bool"
        }
      ],
      "stateMutability": "nonpayable",
      "type": "function"
    },
    {
      "inputs": [
        {
          "internalType": "address",
          "name": "account",
          "type": "address"
        }
      ],
      "name": "balanceOf",
      "outputs": [
        {
          "internalType": "uint256",
          "name": "",
          "type": "uint256"
        }
      ],
      "stateMutability": "view",
      "type": "function"
    },
    {
      "inputs": [],
      "name": "decimals",
      "outputs": [
        {
          "internalType": "uint8",
          "name": "",
          "type": "uint8"
        }
      ],
      "stateMutability": "view",
      "type": "function"
    },
    {
      "inputs": [
        {
          "internalType": "address",
          "name": "spender",
          "type": "address"
        },
        {
          "internalType": "uint256",
          "name": "subtractedValue",
          "type": "uint256"
        }
      ],
      "name": "decreaseAllowance",
      "outputs": [
        {
          "internalType": "bool",
          "name": "",
          "type": "bool"
        }
      ],
      "stateMutability": "nonpayable",
      "type": "function"
    },
    {
      "inputs": [
        {
          "internalType": "address",
          "name": "spender",
          "type": "address"
        },
        {
          "internalType": "uint256",
          "name": "addedValue",
          "type": "uint256"
        }
      ],
      "name": "increaseAllowance",
      "outputs": [
        {
          "internalType": "bool",
          "name": "",
          "type": "bool"
        }
      ],
      "stateMutability": "nonpayable",
      "type": "function"
    },
    {
      "inputs": [
        {
          "internalType": "uint256",
          "name": "_amount",
          "type": "uint256"
        }
      ],
      "name": "mintTokens",
      "outputs": [],
      "stateMutability": "nonpayable",
      "type": "function"
    },
    {
      "inputs": [],
      "name": "name",
      "outputs": [
        {
          "internalType": "string",
          "name": "",
          "type": "string"
        }
      ],
      "stateMutability": "view",
      "type": "function"
    },
    {
      "inputs": [],
      "name": "symbol",
      "outputs": [
        {
          "internalType": "string",
          "name": "",
          "type": "string"
        }
      ],
      "stateMutability": "view",
      "type": "function"
    },
    {
      "inputs": [],
      "name": "totalSupply",
      "outputs": [
        {
          "internalType": "uint256",
          "name": "",
          "type": "uint256"
        }
      ],
      "stateMutability": "view",
      "type": "function"
    },
    {
      "inputs": [
        {
          "internalType": "address",
          "name": "to",
          "type": "address"
        },
        {
          "internalType": "uint256",
          "name": "amount",
          "type": "uint256"
        }
      ],
      "name": "transfer",
      "outputs": [
        {
          "internalType": "bool",
          "name": "",
          "type": "bool"
        }
      ],
      "stateMutability": "nonpayable",
      "type": "function"
    },
    {
      "inputs": [
        {
          "internalType": "address",
          "name": "from",
          "type": "address"
        },
        {
          "internalType": "address",
          "name": "to",
          "type": "address"
        },
        {
          "internalType": "uint256",
          "name": "amount",
          "type": "uint256"
        }
      ],
      "name": "transferFrom",
      "outputs": [
        {
          "internalType": "bool",
          "name": "",
          "type": "bool"
        }
      ],
      "stateMutability": "nonpayable",
      "type": "function"
    }
  ],
  "bytecode": "0x60806040523480156200001157600080fd5b5060405162001ad038038062001ad083398181016040528101906200003791906200032c565b81818160039080519060200190620000519291906200020a565b5080600490805190602001906200006a9291906200020a565b5050506200008a336a115eec47f6cf7e350000006200009260201b60201c565b505062000656565b600073ffffffffffffffffffffffffffffffffffffffff168273ffffffffffffffffffffffffffffffffffffffff16141562000105576040517f08c379a0000000000000000000000000000000000000000000000000000000008152600401620000fc90620003d7565b60405180910390fd5b62000119600083836200020060201b60201c565b80600260008282546200012d919062000486565b92505081905550806000808473ffffffffffffffffffffffffffffffffffffffff1673ffffffffffffffffffffffffffffffffffffffff168152602001908152602001600020600082825401925050819055508173ffffffffffffffffffffffffffffffffffffffff16600073ffffffffffffffffffffffffffffffffffffffff167fddf252ad1be2c89b69c2b068fc378daa952ba7f163c4a11628f55a4df523b3ef83604051620001e09190620003f9565b60405180910390a3620001fc600083836200020560201b60201c565b5050565b505050565b505050565b828054620002189062000523565b90600052602060002090601f0160209004810192826200023c576000855562000288565b82601f106200025757805160ff191683800117855562000288565b8280016001018555821562000288579182015b82811115620002875782518255916020019190600101906200026a565b5b5090506200029791906200029b565b5090565b5b80821115620002b65760008160009055506001016200029c565b5090565b6000620002d1620002cb846200043f565b62000416565b905082815260208101848484011115620002ea57600080fd5b620002f7848285620004ed565b509392505050565b600082601f8301126200031157600080fd5b815162000323848260208601620002ba565b91505092915050565b600080604083850312156200034057600080fd5b600083015167ffffffffffffffff8111156200035b57600080fd5b6200036985828601620002ff565b925050602083015167ffffffffffffffff8111156200038757600080fd5b6200039585828601620002ff565b9150509250929050565b6000620003ae601f8362000475565b9150620003bb826200062d565b602082019050919050565b620003d181620004e3565b82525050565b60006020820190508181036000830152620003f2816200039f565b9050919050565b6000602082019050620004106000830184620003c6565b92915050565b60006200042262000435565b905062000430828262000559565b919050565b6000604051905090565b600067ffffffffffffffff8211156200045d576200045c620005ed565b5b62000468826200061c565b9050602081019050919050565b600082825260208201905092915050565b60006200049382620004e3565b9150620004a083620004e3565b9250827fffffffffffffffffffffffffffffffffffffffffffffffffffffffffffffffff03821115620004d857620004d76200058f565b5b828201905092915050565b6000819050919050565b60005b838110156200050d578082015181840152602081019050620004f0565b838111156200051d576000848401525b50505050565b600060028204905060018216806200053c57607f821691505b60208210811415620005535762000552620005be565b5b50919050565b62000564826200061c565b810181811067ffffffffffffffff82111715620005865762000585620005ed565b5b80604052505050565b7f4e487b7100000000000000000000000000000000000000000000000000000000600052601160045260246000fd5b7f4e487b7100000000000000000000000000000000000000000000000000000000600052602260045260246000fd5b7f4e487b7100000000000000000000000000000000000000000000000000000000600052604160045260246000fd5b6000601f19601f8301169050919050565b7f45524332303a206d696e7420746f20746865207a65726f206164647265737300600082015250565b61146a80620006666000396000f3fe608060405234801561001057600080fd5b50600436106100b45760003560e01c806370a082311161007157806370a08231146101a357806395d89b41146101d357806397304ced146101f1578063a457c2d71461020d578063a9059cbb1461023d578063dd62ed3e1461026d576100b4565b806306fdde03146100b9578063095ea7b3146100d757806318160ddd1461010757806323b872dd14610125578063313ce567146101555780633950935114610173575b600080fd5b6100c161029d565b6040516100ce9190610ee7565b60405180910390f35b6100f160048036038101906100ec9190610ce9565b61032f565b6040516100fe9190610ecc565b60405180910390f35b61010f610352565b60405161011c9190611009565b60405180910390f35b61013f600480360381019061013a9190610c9a565b61035c565b60405161014c9190610ecc565b60405180910390f35b61015d61038b565b60405161016a9190611024565b60405180910390f35b61018d60048036038101906101889190610ce9565b610394565b60405161019a9190610ecc565b60405180910390f35b6101bd60048036038101906101b89190610c35565b6103cb565b6040516101ca9190611009565b60405180910390f35b6101db610413565b6040516101e89190610ee7565b60405180910390f35b61020b60048036038101906102069190610d25565b6104a5565b005b61022760048036038101906102229190610ce9565b6104b2565b6040516102349190610ecc565b60405180910390f35b61025760048036038101906102529190610ce9565b610529565b6040516102649190610ecc565b60405180910390f35b61028760048036038101906102829190610c5e565b61054c565b6040516102949190611009565b60405180910390f35b6060600380546102ac90611139565b80601f01602080910402602001604051908101604052809291908181526020018280546102d890611139565b80156103255780601f106102fa57610100808354040283529160200191610325565b820191906000526020600020905b81548152906001019060200180831161030857829003601f168201915b5050505050905090565b60008061033a6105d3565b90506103478185856105db565b600191505092915050565b6000600254905090565b6000806103676105d3565b90506103748582856107a6565b61037f858585610832565b60019150509392505050565b60006012905090565b60008061039f6105d3565b90506103c08185856103b1858961054c565b6103bb919061105b565b6105db565b600191505092915050565b60008060008373ffffffffffffffffffffffffffffffffffffffff1673ffffffffffffffffffffffffffffffffffffffff168152602001908152602001600020549050919050565b60606004805461042290611139565b80601f016020809104026020016040519081016040528092919081815260200182805461044e90611139565b801561049b5780601f106104705761010080835404028352916020019161049b565b820191906000526020600020905b81548152906001019060200180831161047e57829003601f168201915b5050505050905090565b6104af3382610aaa565b50565b6000806104bd6105d3565b905060006104cb828661054c565b905083811015610510576040517f08c379a000000000000000000000000000000000000000000000000000000000815260040161050790610fc9565b60405180910390fd5b61051d82868684036105db565b60019250505092915050565b6000806105346105d3565b9050610541818585610832565b600191505092915050565b6000600160008473ffffffffffffffffffffffffffffffffffffffff1673ffffffffffffffffffffffffffffffffffffffff16815260200190815260200160002060008373ffffffffffffffffffffffffffffffffffffffff1673ffffffffffffffffffffffffffffffffffffffff16815260200190815260200160002054905092915050565b600033905090565b600073ffffffffffffffffffffffffffffffffffffffff168373ffffffffffffffffffffffffffffffffffffffff16141561064b576040517f08c379a000000000000000000000000000000000000000000000000000000000815260040161064290610fa9565b60405180910390fd5b600073ffffffffffffffffffffffffffffffffffffffff168273ffffffffffffffffffffffffffffffffffffffff1614156106bb576040517f08c379a00000000000000000000000000000000000000000000000000000000081526004016106b290610f29565b60405180910390fd5b80600160008573ffffffffffffffffffffffffffffffffffffffff1673ffffffffffffffffffffffffffffffffffffffff16815260200190815260200160002060008473ffffffffffffffffffffffffffffffffffffffff1673ffffffffffffffffffffffffffffffffffffffff168152602001908152602001600020819055508173ffffffffffffffffffffffffffffffffffffffff168373ffffffffffffffffffffffffffffffffffffffff167f8c5be1e5ebec7d5bd14f71427d1e84f3dd0314c0f7b2291e5b200ac8c7c3b925836040516107999190611009565b60405180910390a3505050565b60006107b2848461054c565b90507fffffffffffffffffffffffffffffffffffffffffffffffffffffffffffffffff811461082c578181101561081e576040517f08c379a000000000000000000000000000000000000000000000000000000000815260040161081590610f49565b60405180910390fd5b61082b84848484036105db565b5b50505050565b600073ffffffffffffffffffffffffffffffffffffffff168373ffffffffffffffffffffffffffffffffffffffff1614156108a2576040517f08c379a000000000000000000000000000000000000000000000000000000000815260040161089990610f89565b60405180910390fd5b600073ffffffffffffffffffffffffffffffffffffffff168273ffffffffffffffffffffffffffffffffffffffff161415610912576040517f08c379a000000000000000000000000000000000000000000000000000000000815260040161090990610f09565b60405180910390fd5b61091d838383610c01565b60008060008573ffffffffffffffffffffffffffffffffffffffff1673ffffffffffffffffffffffffffffffffffffffff168152602001908152602001600020549050818110156109a3576040517f08c379a000000000000000000000000000000000000000000000000000000000815260040161099a90610f69565b60405180910390fd5b8181036000808673ffffffffffffffffffffffffffffffffffffffff1673ffffffffffffffffffffffffffffffffffffffff16815260200190815260200160002081905550816000808573ffffffffffffffffffffffffffffffffffffffff1673ffffffffffffffffffffffffffffffffffffffff168152602001908152602001600020600082825401925050819055508273ffffffffffffffffffffffffffffffffffffffff168473ffffffffffffffffffffffffffffffffffffffff167fddf252ad1be2c89b69c2b068fc378daa952ba7f163c4a11628f55a4df523b3ef84604051610a919190611009565b60405180910390a3610aa4848484610c06565b50505050565b600073ffffffffffffffffffffffffffffffffffffffff168273ffffffffffffffffffffffffffffffffffffffff161415610b1a576040517f08c379a0000000000000000000000000000000000000000000000000000000008152600401610b1190610fe9565b60405180910390fd5b610b2660008383610c01565b8060026000828254610b38919061105b565b92505081905550806000808473ffffffffffffffffffffffffffffffffffffffff1673ffffffffffffffffffffffffffffffffffffffff168152602001908152602001600020600082825401925050819055508173ffffffffffffffffffffffffffffffffffffffff16600073ffffffffffffffffffffffffffffffffffffffff167fddf252ad1be2c89b69c2b068fc378daa952ba7f163c4a11628f55a4df523b3ef83604051610be99190611009565b60405180910390a3610bfd60008383610c06565b5050565b505050565b505050565b600081359050610c1a81611406565b92915050565b600081359050610c2f8161141d565b92915050565b600060208284031215610c4757600080fd5b6000610c5584828501610c0b565b91505092915050565b60008060408385031215610c7157600080fd5b6000610c7f85828601610c0b565b9250506020610c9085828601610c0b565b9150509250929050565b600080600060608486031215610caf57600080fd5b6000610cbd86828701610c0b565b9350506020610cce86828701610c0b565b9250506040610cdf86828701610c20565b9150509250925092565b60008060408385031215610cfc57600080fd5b6000610d0a85828601610c0b565b9250506020610d1b85828601610c20565b9150509250929050565b600060208284031215610d3757600080fd5b6000610d4584828501610c20565b91505092915050565b610d57816110c3565b82525050565b6000610d688261103f565b610d72818561104a565b9350610d82818560208601611106565b610d8b816111c9565b840191505092915050565b6000610da360238361104a565b9150610dae826111da565b604082019050919050565b6000610dc660228361104a565b9150610dd182611229565b604082019050919050565b6000610de9601d8361104a565b9150610df482611278565b602082019050919050565b6000610e0c60268361104a565b9150610e17826112a1565b604082019050919050565b6000610e2f60258361104a565b9150610e3a826112f0565b604082019050919050565b6000610e5260248361104a565b9150610e5d8261133f565b604082019050919050565b6000610e7560258361104a565b9150610e808261138e565b604082019050919050565b6000610e98601f8361104a565b9150610ea3826113dd565b602082019050919050565b610eb7816110ef565b82525050565b610ec6816110f9565b82525050565b6000602082019050610ee16000830184610d4e565b92915050565b60006020820190508181036000830152610f018184610d5d565b905092915050565b60006020820190508181036000830152610f2281610d96565b9050919050565b60006020820190508181036000830152610f4281610db9565b9050919050565b60006020820190508181036000830152610f6281610ddc565b9050919050565b60006020820190508181036000830152610f8281610dff565b9050919050565b60006020820190508181036000830152610fa281610e22565b9050919050565b60006020820190508181036000830152610fc281610e45565b9050919050565b60006020820190508181036000830152610fe281610e68565b9050919050565b6000602082019050818103600083015261100281610e8b565b9050919050565b600060208201905061101e6000830184610eae565b92915050565b60006020820190506110396000830184610ebd565b92915050565b600081519050919050565b600082825260208201905092915050565b6000611066826110ef565b9150611071836110ef565b9250827fffffffffffffffffffffffffffffffffffffffffffffffffffffffffffffffff038211156110a6576110a561116b565b5b828201905092915050565b60006110bc826110cf565b9050919050565b60008115159050919050565b600073ffffffffffffffffffffffffffffffffffffffff82169050919050565b6000819050919050565b600060ff82169050919050565b60005b83811015611124578082015181840152602081019050611109565b83811115611133576000848401525b50505050565b6000600282049050600182168061115157607f821691505b602082108114156111655761116461119a565b5b50919050565b7f4e487b7100000000000000000000000000000000000000000000000000000000600052601160045260246000fd5b7f4e487b7100000000000000000000000000000000000000000000000000000000600052602260045260246000fd5b6000601f19601f8301169050919050565b7f45524332303a207472616e7366657220746f20746865207a65726f206164647260008201527f6573730000000000000000000000000000000000000000000000000000000000602082015250565b7f45524332303a20617070726f766520746f20746865207a65726f20616464726560008201527f7373000000000000000000000000000000000000000000000000000000000000602082015250565b7f45524332303a20696e73756666696369656e7420616c6c6f77616e6365000000600082015250565b7f45524332303a207472616e7366657220616d6f756e742065786365656473206260008201527f616c616e63650000000000000000000000000000000000000000000000000000602082015250565b7f45524332303a207472616e736665722066726f6d20746865207a65726f20616460008201527f6472657373000000000000000000000000000000000000000000000000000000602082015250565b7f45524332303a20617070726f76652066726f6d20746865207a65726f2061646460008201527f7265737300000000000000000000000000000000000000000000000000000000602082015250565b7f45524332303a2064656372656173656420616c6c6f77616e63652062656c6f7760008201527f207a65726f000000000000000000000000000000000000000000000000000000602082015250565b7f45524332303a206d696e7420746f20746865207a65726f206164647265737300600082015250565b61140f816110b1565b811461141a57600080fd5b50565b611426816110ef565b811461143157600080fd5b5056fea2646970667358221220caaea5e9f350c29ba4a099ed99a8c062aacb980bbc17bdf52208b139934ee2e464736f6c63430008040033",
  "linkReferences": {},
  "deployedLinkReferences": {}
}